:020000020000FC
:1000000008C018951895189518951895189518956D
:100010001895F89405E801BF002411241394C19A9F
:10002000B99AC098B898C298BA98BC98C498C3981E
:10003000BB9804E12CD0C1983324FFCF16D000E147
:100040004012BB984010BB9A00E1401206C0BA9A19
:100050000EE11DD0BA98312C07C0311005C0C19AED
:1000600004E115D0C198302CE8CF16B310710027E9
:100070000A95F1F726B320711213142D412E08951D
:1000800010ED28EC2A95F1F71A95E1F70895F8DFBD
:060090000A95E9F708954E
:00000001FF
