:100000000EC01BC01AC019C018C08AC016C015C0C7
:1000100014C013C012C011C010C00FC00EC01124F4
:100020001FBECFEDCDBF20E0A0E6B0E001C01D9225
:10003000AB36B207E1F7BED0F6C0E2CF3FB7F894D7
:100040008091650090916600A0916700B091680072
:1000500022B708B601FE05C02F3F19F00196A11D79
:10006000B11D3FBFBA2FA92F982F8827820F911D4E
:10007000A11DB11DBC01CD0146E0660F771F881F91
:10008000991F4A95D1F708958F929F92AF92BF9290
:10009000CF92DF92EF92FF926B017C01CFDF4B0199
:1000A0005C01C114D104E104F104E9F0C7DFDC0113
:1000B000CB0188199909AA09BB09883E9340A1057B
:1000C000B10578F321E0C21AD108E108F10888EE01
:1000D000880E83E0981EA11CB11CC114D104E10458
:1000E000F10421F7DECFFF90EF90DF90CF90BF902B
:1000F000AF909F908F900895CF93C6B3C87062E37E
:1001000070E080E090E0C0DF86B32C2F30E0887094
:1001100090E02817390711F4C0936A00CF91089531
:100120001F920F920FB60F9211242F933F938F932C
:100130009F93AF93BF938091610090916200A091D3
:100140006300B09164003091600020E3230F2D37ED
:1001500020F44096A11DB11D05C023EB230F41964D
:10016000A11DB11D209360008093610090936200F7
:10017000A0936300B0936400809165009091660045
:10018000A0916700B09168000196A11DB11D8093F8
:10019000650090936600A0936700B0936800BF91DC
:1001A000AF919F918F913F912F910F900FBE0F9024
:1001B0001F90189578948AB582608ABD8AB581604F
:1001C0008ABD83B7826083BF83B7816083BF89B7ED
:1001D000826089BF80B7826080BF3298319A309A3E
:1001E000379AC498BC98BB98B89AC09AC29ABA9ADF
:1001F00083DFC0E0D0E080DF90916A0080916900E9
:10020000981769F0BC9AC29860ED77E080E090E0C2
:100210003BDFBC98C29A80916A0080936900209766
:0A02200051F3EEDEE8CFF894FFCFB3
:00000001FF
